:020000040800F2
:10000000002000201D2A0008590800085B0800088D
:1000100000000000000000000000000000000000E0
:100020000000000000000000000000005D08000863
:1000300000000000000000005F08000861080008E0
:100040006D2A00086D2A0008690800086D2A00085A
:100050006D2A00086D2A00086D2A00086D2A000824
:100060006D2A00086D2A00086D2A00086D2A000814
:100070006D2A00086D2A0008000000006D2A0008A3
:10008000000000006D2A00080000000000000000D1
:100090006D2A0008000000006D2A00086D2A000883
:1000A0006D2A00086D2A00086D2A00086D2A0008D4
:1000B0006D2A00086D2A0008790800086D2A0008DA
:1000C0000023C25C0133002AFBD1581E7047000098
:1000D00003B47146490840004900095E49008E4456
:1000E00003BC7047002243088B4274D303098B4240
:1000F0005FD3030A8B4244D3030B8B4228D3030CF8
:100100008B420DD3FF22090212BA030C8B4202D399
:100110001212090265D0030B8B4219D300E0090AC1
:10012000C30B8B4201D3CB03C01A5241830B8B42CA
:1001300001D38B03C01A5241430B8B4201D34B03B3
:10014000C01A5241030B8B4201D30B03C01A524118
:10015000C30A8B4201D3CB02C01A5241830A8B429D
:1001600001D38B02C01A5241430A8B4201D34B0286
:10017000C01A5241030A8B4201D30B02C01A5241EA
:10018000CDD2C3098B4201D3CB01C01A524183099E
:100190008B4201D38B01C01A524143098B4201D3D8
:1001A0004B01C01A524103098B4201D30B01C01A03
:1001B0005241C3088B4201D3CB00C01A524183087D
:1001C0008B4201D38B00C01A524143088B4201D3AA
:1001D0004B00C01A5241411A00D20146524110460A
:1001E0007047FFE701B5002000F006F802BDC046E9
:1001F0000029F7D076E770477047C046844608006C
:100200006146FFE71FB503F037FB002801D400214A
:10021000C8421FBD10B503F0B3FA4042013010BD13
:1002200010B503F029FB002801DB002010BD0120E0
:1002300010BDC04610B503F01FFB002801DD0020F3
:1002400010BD012010BDC04610B503F0C5FA00284E
:1002500001DC002010BD012010BDC04610B503F028
:10026000BBFA002801DA002010BD012010BDC046F5
:10027000002B11D1002A0FD1002900D1002802D073
:100280000021C943080007B4024802A140180290A7
:1002900003BDC04665FFFFFF03B4684601B5029881
:1002A00003F090F8019B9E4602B00CBC7047C0461C
:1002B0001C2101231B04984201D3000C10391B0A96
:1002C000984201D3000A08391B09984201D300095A
:1002D000043902A2105C40187047C04604030202B1
:1002E00001010101000000000000000010B500291C
:1002F00003D1FFF7DDFF203002E00800FFF7D8FF51
:1003000010BDC0460448054B10B5834203D0044BD2
:10031000002B00D0984710BD5C0000205C0000203E
:100320000000000006480749091A8B10C90FC918B8
:1003300010B5491003D0044B002B00D0984710BDD6
:100340005C0000205C0000200000000010B5074C9D
:100350002378002B09D1FFF7D5FF054B002B02D0E6
:10036000044800E000BF0123237010BD5C000020A2
:100370000000000050410008054B10B5002B03D0D1
:100380000449054800E000BFFFF7CCFF10BDC046A0
:1003900000000000600000205041000830B504005B
:1003A0000D000021FF2010E04000C0B2312250407B
:1003B000C0B20133DBB2072B05D842B2002AF3DB0F
:1003C0004000C0B2F5E70131C9B2A94203D2635C73
:1003D00058400023EFE730BDF0B58BB005AC1422D8
:1003E0000021200002F07AFB1F4BD96A042211433E
:1003F000D962D96A0A400192019AD96A80221143CE
:10040000D962D96A0A400292029ADA6A0126324314
:10041000DA62DA6A32400392039AD96A02221143FD
:10042000D962DB6A1A400492049BA027FF050022D0
:100430002021380001F0BCFD80239B01059384231B
:100440009B030693002507952100084801F0EAFC6C
:10045000202305930696079508952100380001F0A2
:10046000E1FC0BB0F0BDC046001002400008005097
:1004700010B50400FFF724FE012382B202485B425C
:10048000210002F0BBF910BD7C0000200FB400B5C4
:10049000A3B024AB04CB0193802102A802F012FB8D
:1004A000002809DD802800D98020012382B2044879
:1004B0005B4202A902F0A2F923B008BC04B01847BD
:1004C0007C00002070B50F48FFF7D2FF00250824FC
:1004D00001E00134E4B2772C0DD861000A481423FE
:1004E000022200F051FE0028F3D108482100FFF756
:1004F000CDFF0125EDE7002D00D070BD0448FFF7CA
:10050000B7FFFAE768410008280100209041000881
:10051000B041000870B584B004000D000F226A4499
:10052000FD2313702048993B0093633B882100F022
:10053000ABFC002804D001231E00300004B070BDC5
:100540000A3000F07DFA1848642300935E3B02AA4B
:10055000882100F063FD061E1CD1022102A8FFF7CE
:100560001DFF6B469B7A984217D102210B206844ED
:10057000FFF714FF02AB5B79984211D102AB1978F7
:100580005A7809020A432280DA781B79120213434F
:100590002B80D2E701231E00CFE701231E00CCE70A
:1005A00001231E00C9E7C0462801002070B584B0B1
:1005B000304864230322882100F0E6FD002832D170
:1005C00003A90E206844FFF7A5FF002833D10E23AE
:1005D0006B44188803F034FD274903F09DF927493F
:1005E00002F0B8FF264903F0E1FA051C03AB1888B6
:1005F00003F026FD234903F08FF9204902F0AAFFFA
:10060000214903F0D3FA041C061C0021FFF708FE61
:10061000002818D11D49201CFFF716FE002814D011
:100620001A4B1E1C11E01A48FFF722FFFA20800027
:1006300000F006FA1CE01748FFF71AFFFA208000C6
:1006400000F0FEF914E000231E1C281C03F03AFD04
:1006500004000D00301C03F035FD009001912200D4
:100660002B000D48FFF712FFFA20800000F0E8F998
:1006700004B070BD2801002000002F4300FF7F4719
:10068000000034420000FA420000C0400000C842AE
:10069000C8410008E8410008FC410008014B012264
:1006A0001A70704778000020FEE7000010B50B4874
:1006B0000B4B0360E1235B02436000238360C36054
:1006C00003610C2242618361C3610362436202F0F1
:1006D0006FF9002800D110BDFFF7E6FF7C00002075
:1006E0000044004010B50E480E4B036000234360E9
:1006F0007F2282608032C260036143618361C36193
:1007000001F014FD002807D105480022002101F066
:1007100063FD002802D110BDFFF7C6FFFFF7C4FF3D
:10072000040100200028004010B51348134B03605B
:10073000C123DB004360002383600122C2600361A8
:1007400043618361C361036200F030FB00280CD178
:100750000948002100F0BCFD002808D1064800210E
:1007600000F0E4FD002804D110BDFFF79DFFFFF766
:100770009BFFFFF799FFC04628010020005800406A
:1007800010B59CB00EAC38220021200002F0A6F972
:100790001422002109A802F0A1F9242200216846B0
:1007A00002F09CF91C490A681C4B1A4080231B016B
:1007B00013430B6018230E93173B139315930023D9
:1007C0001693A022120217921893200000F032FE16
:1007D00000281AD109A80F230993002343608360DE
:1007E000C3600361002101F0E9F800280FD16846D9
:1007F000222300930023049380239B02019301F0A2
:10080000EFF9002805D11CB010BDFFF74DFFFFF731
:100810004BFFFFF749FFC04600700040FFE7FFFFB6
:1008200010B500F0E7F8FFF7ABFFFFF7D5FDFFF7D6
:100830003DFFFFF757FFFFF777FF0548FFF718FE6B
:100840000448FFF715FEFFF73DFEFFF7AFFEFCE79C
:100850002042000838420008FEE7FEE77047704774
:1008600010B500F0DBF810BD10B5024801F044FDF2
:1008700010BDC0460401002070470000054B5A6BB4
:1008800001210A435A63996B802252050A439A63F5
:100890007047C04600100240F0B587B00400142233
:1008A000002101A802F01AF92268174B9A4201D0E0
:1008B00007B0F0BD154DEA6A02231A43EA62EA6AFC
:1008C00013400093009B01AC80231B01019312266F
:1008D0000296032704970623059321000C4801F094
:1008E000A1FA80239B0101930296002303930497AE
:1008F000053305932100064801F094FAAA6B802382
:10090000DB031343AB63D3E7005800400010024001
:100910000004005010B50268094B9A4200D010BD87
:10092000084A116D8023DB020B431365002200216E
:10093000022001F093FB022001F094FBEFE7C04698
:10094000002800400010024010B586B004001422B8
:10095000002101A802F0C2F82268104B9A4201D08F
:1009600006B010BD0E4B996B802292020A439A6327
:10097000D96A01221143D962DB6A1A400092009BB6
:1009800001A90C2301930A3B4B600133CB60013377
:100990000B61A020C00501F045FAE1E700440040EA
:1009A0000010024070B505000F4B1C680F4B197802
:1009B000FA208000FFF796FB01002000FFF792FB72
:1009C00001F05CFB00280DD1032D01D901200AE0C4
:1009D000013000222900404201F040FB044B1D6021
:1009E000002000E0012070BD080000200000002071
:1009F0000400002010B5084A136840210B4313601F
:100A00000020FFF7CFFF041E02D00124200010BDFC
:100A1000FFF734FFFAE7C04600200240034A11689E
:100A2000034B1B785B1813607047C0467C010020A5
:100A300000000020014B18687047C0467C01002070
:100A400070B50400FFF7F6FF0500631C02D0044BED
:100A50001B78E418FFF7EEFF401BA042FAD370BDED
:100A600000000020026893699B0701D50023936270
:100A700003689A69D20703D49A6901210A439A61EB
:100A8000704700008905890D120411431943009B2A
:100A900019434900490803689C465A68009B5B0D4E
:100AA0008020C0000340044803439A4313000B43D3
:100AB000624653607047C046FF63FF03F0B5C64609
:100AC00000B504000D00170001688B6910221600A4
:100AD0001E401A4200D175E01023CB6100239846D6
:100AE0000026206883699B0631D4002E2FD16B1C11
:100AF000F7D0FFF79FFFC01BA84201D8002DF0D10F
:100B000021684B688022D20113404222A25CD2B2FB
:100B10008869000403D5002B01D1202A0ED1236857
:100B20009B699B06DDD4FFF785FFC01B1928F6D90A
:100B3000202342461A4390460126D2E74A68802382
:100B4000DB0113434B60FFF775FF0700E7E7002E5B
:100B500001D12023C3610426434633431E000125EF
:100B600022689369D90504D501210E43FF31D16173
:100B700001255A0506D50822164322688021C9009E
:100B8000D16101259B051FD502231E4323688022C6
:100B90009200DA6101252000FFF764FF22685368A4
:100BA0000B490B405360636C334363644123202241
:100BB000E25400232232A354023AA354280080BCFA
:100BC000B846F0BD0025CBE7002DF7D0E3E7C046DF
:100BD00000E800FE70B504000D00160023689B6954
:100BE0009B0720D4320029002000FFF767FF002870
:100BF0001BD16B1CF2D0FFF71DFF801BA84201D850
:100C0000002DEBD123689B699B07E7D4636C2022FE
:100C1000134363644123E25400232232A354023A73
:100C2000A354012000E0002070BD0120FCE7F0B5D6
:100C3000C64600B582B007000C0015001E00089BD8
:100C400098463B689B6923401B1B5A4253410195C0
:100C5000AB4226D1424631003800FFF72FFF002873
:100C600024D1731CEDD0FFF7E5FE4346C01AB04215
:100C700001D8002EE5D13B689B6923401B1B5A42DB
:100C80005341019A9342DCD17B6C202213437B6455
:100C90004123FA5400232232BB54023ABB540120B0
:100CA00000E0002002B080BCB846F0BD0120F9E7AA
:100CB00070B504000D00160003E023689B699B06D5
:100CC00012D523689B699B061BD4320029002000A3
:100CD000FFF7F4FE002816D1FFF7ACFE801BA842F8
:100CE000EBD8002DEDD1E8E7636C20221343636459
:100CF0004123E25400232232A354023AA354012098
:100D000000E0002070BD0120FCE70000F8B5040001
:100D10000E001700002518E000236364FFF78AFE29
:100D2000C01BB04201D8002E0FD1002D0DD1236879
:100D30009B695B0709D4636C2022134363644123DE
:100D4000E254013B0022E254013523689B695B07B2
:100D500028D4002D26D13A0031002000FFF7AEFE46
:100D6000002800D00125226893699B06D6D5002D66
:100D7000D4D193699369DB06CED51023D3610C3BA4
:100D8000636423682022DA6121684B6806480340C7
:100D90004B604123E25400232232A354023AA3546D
:100DA0000135BBE72800F8BD00E800FE10B5041EC1
:100DB00060D04123C35C002B48D041232422E2545D
:100DC0002268136801218B431360636822682A49F3
:100DD0000B4013612268936828490B409360E368D5
:100DE000012B39D0A168226884231B020B43936036
:100DF000E368022B37D02268536821490B405360C7
:100E0000226851681F4B0B4353602268D3681B490B
:100E10000B40D360236962691343A26912022168FF
:100E20001343CB60E369216A22680B431360226895
:100E3000136801210B4313600023636441221F31B7
:100E4000A15423630132A354002010BD403300227B
:100E5000C254FFF721FDB0E7A168226880231B027E
:100E60000B439360C4E72268516880231B010B4346
:100E70005360C5E70120E8E7FFFFFFF0FF7FFFFFBA
:100E8000FFF7FFFF00800002F0B5C64600B582B054
:100E90000400884616001F004123C35C202B00D0AD
:100EA000A8E02033C35C012B00D1A8E0402301223D
:100EB000C254FFF7BFFD05008021009019230122D5
:100EC00009022000FFF7B3FE002800D099E041237B
:100ED0002122E2540133113AE25400236364666232
:100EE00067856363638DFF2B1ED9FF2323858023D2
:100EF0005B04228D002A1CD0226831789162626ADC
:100F000001326262628D013A92B26285228D013AAB
:100F100092B22285D2B20132D2B23E49009141460C
:100F20002000FFF7AFFD18E0638D238580239B042D
:100F3000DFE7D2B23749009141462000FFF7A2FD1A
:100F40000BE0628D92B222858023D2B20021009103
:100F50009B0441462000FFF795FD638D002B32D0A6
:100F60002A0008992000FFF735FE00284BD1626A5D
:100F7000236812789A62636A01336362638D013B6E
:100F80009BB26385238D013B9BB22385628D002A32
:100F9000E3D0002BE1D10095089B002280212000A6
:100FA000FFF745FE002830D1638DFF2BC9D9FF2301
:100FB00023857F3B002200925B04FF3241462000E4
:100FC000FFF760FDC9E72A0008992000FFF770FECF
:100FD00000281CD123682022DA6121684B680E4D5D
:100FE0002B404B604123E25400232232A354023AA7
:100FF000A35400E0022002B080BCB846F0BD02203D
:10100000F9E70120F7E70120F5E70120F3E70120E8
:10101000F1E7C0460020008000E800FEF0B5C646BB
:1010200000B582B00400884616001F004123C35C4F
:10103000202B00D095E02033C35C012B00D195E03C
:1010400040230122C254FFF7F5FC050080210090E7
:101050001923012209022000FFF7E9FD002800D032
:1010600086E041232222E2540133123AE254002363
:101070006364666267856363638DFF2B0BD901230D
:1010800023857F333E4A00925B04012241462000C3
:10109000FFF7F8FC18E0628D92B222858023D2B26D
:1010A000374900919B0441462000FFF7EBFC0BE021
:1010B000628D92B222858023D2B2002100919B04DE
:1010C00041462000FFF7DEFC638D002B32D02A0062
:1010D00008992000FFF71AFE00284BD123685A6AAE
:1010E000636A1A70636A01336362238D013B9BB2AA
:1010F0002385628D013A92B26285628D002AE3D027
:10110000002BE1D10095089B002280212000FFF7F1
:101110008EFD002830D1638DFF2BC9D9FF23238595
:101120007F3B002200925B04FF3241462000FFF724
:10113000A9FCC9E72A0008992000FFF7B9FD00289B
:101140001CD123682022DA6121684B680D4D2B40A9
:101150004B604123E25400232232A354023AA354A9
:1011600000E0022002B080BCB846F0BD0220F9E7E2
:101170000120F7E70120F5E70120F3E70120F1E77F
:101180000024008000E800FEF0B587B005000F00E5
:1011900003921C00002305934133C35C202B00D035
:1011A00087E003689B691B0400D584E04023C35C8F
:1011B000012B00D181E040230122C25401332332AC
:1011C000C25400234364EB68012B14D0BA05920D7E
:1011D0003D4B13432A685360FFF72CFC06002B6835
:1011E000996920220A409206D20F996910230B4078
:1011F000DB06DB0F0FE0BA05920D344B1343E9E732
:101200002B68996920220A409206D20F996910230F
:101210000B40DB06DB0F134314D1631CF0D0FFF748
:1012200009FC801BA04201D8002CE9D120224123D7
:10123000EA546B6C13436B6440230022EA54012090
:1012400007B0F0BD2B689B69DB0620D50096230014
:10125000002220212800FFF7EAFC002831D12B686A
:101260001022DA612B681032DA61059B0133059395
:10127000059B039A9342A6D320224123EA546B6C28
:1012800013436B6440230022EA540130D8E70096F0
:101290002300002220212800FFF7C9FC00280ED1DE
:1012A0002A682023D3614122AB5420330022EA5420
:1012B000C6E70220C4E70220C2E70220C0E70120FF
:1012C000BEE70120BCE7C046002800020020000263
:1012D00070B54123C35C202B22D12033C35C012B8A
:1012E00020D040239C460122C2541C3B412543553B
:1012F0000468236893432360046823680A4E3340DC
:101300002360046823680B43236001680B68134360
:101310000B6020234355002362468354002070BD98
:101320000220FCE70220FAE7FFEFFFFF70B5412340
:10133000C35C202B20D12033C35C012B1ED0402363
:101340009C460122C2541C3B412543550468236836
:101350009343236004682368094E3340090219430C
:10136000216001680B6813430B6020234355002361
:1013700062468354002070BD0220FCE70220FAE799
:10138000FFF0FFFF10B5264BD9680C230B40082B4C
:1013900042D00C2B07D0042B34D1214B1B68DB0629
:1013A0003CD5204837E08A0C0F2313401E4AD25CFC
:1013B000890D032319400131194BDB68DB0309D583
:1013C00053019B1A9801C01AC00080184002FEF712
:1013D00089FE20E0124B1B68DB0609D553019B1ADE
:1013E0009801C01AC00080180002FEF77BFE12E0D0
:1013F00053019B1A9801C01AC00080188002FEF7A2
:1014000071FE08E0064B5A68520B07231340013364
:1014100080200002984010BD0448FCE70448FAE729
:101420000010024000093D006042000800127A00EE
:101430000024F400F0B583B0041E00D197E2C24B43
:10144000DA680C251540DA6880235B021A40170021
:101450000368DB0736D5082D2CD00C2D28D0636807
:101460008022520293424DD0A022D20293424ED00B
:10147000B54B1A68B5490A401A601A6880214902BA
:101480000A400192019A1A68B1490A401A606368D9
:10149000002B48D0FFF7CEFA0600AB4B1B689B032E
:1014A00010D4FFF7C7FA801B6428F6D903205FE247
:1014B000002AD4D0A44B1B689B0303D56368002B80
:1014C00000D157E223689B0764D5E368042D3AD026
:1014D0000C2D36D0002B00D1AFE09B490A680920C3
:1014E000824313430B60FFF7A5FA0600964B1B6877
:1014F0005B0700D598E0FFF79DFA801B0228F5D91D
:10150000032035E2904A11680B431360BFE78E4B0E
:1015100019688022D2020A431A6019688022520296
:101520000A431A60B3E7FFF785FA0600864B1B688B
:101530009B03C7D5FFF77EFA801B6428F6D90320EA
:1015400016E2002FC6D1804A1268520702D5002B3E
:1015500000D111E27C4842687E490A4021690902B3
:101560000A434260026809218A431343060003606C
:10157000FFF708FFF26812090F231340764AD35C85
:10158000D840764B1860764B1868FFF70BFA0028A6
:1015900000D0EDE12368DB062DD5002D60D16A4B2C
:1015A0001B689B0503D5E369002B00D1E6E1664A81
:1015B00053686C490B40616A0B43536053681B02CC
:1015C0001B0A216A09060B435360616A490B01310A
:1015D00080231B028B40D16809090F220A405E4913
:1015E0008A5CD3405D4A13605D4B1868FFF7DAF9F7
:1015F000002800D0BCE123681B077DD56369002B60
:1016000067D0514A136D01210B431365FFF712FA9E
:1016100006004D4B1B6D9B076ED4FFF70BFA801B2A
:101620000228F6D90320A3E147494B68494A1340F1
:101630002269120213434B60ACE7434A136801214D
:101640008B431360FFF7F6F906003F4B1B685B07FF
:10165000A0D5FFF7EFF9801B0228F6D9032087E118
:10166000E369002B22D0384A116880235B000B43CA
:101670001360FFF7DFF90600334B1B689B0506D4A8
:10168000FFF7D8F9801B0228F6D9032070E12E4A13
:10169000536834490B40616A0B43536053681B0223
:1016A0001B0A216A09060B435360A4E7264A136804
:1016B0002D490B401360FFF7BDF90600224B1B6854
:1016C0009B0598D5FFF7B6F9801B0228F6D90320B1
:1016D0004EE11D4A136D01218B431365FFF7AAF9F3
:1016E0000600194B1B6D9B0706D5FFF7A3F9801B5E
:1016F0000228F6D903203BE123685B0700D48EE083
:10170000114B9B6BDB001CD40F4A916B80235B0554
:101710000B43936301231F00144B1B68DB0529D582
:10172000A36880225200934238D0002B4CD1064B44
:101730001A6D0D490A401A651A6D0D490A401A655D
:1017400030E000231F00E7E700100240FFFFFEFF2C
:10175000FFFFFBFFFFE0FFFF7442000808000020CE
:1017600004000020FF1FFFFFFFFEFFFF007000408E
:10177000FFFBFFFF874A116880235B000B43136068
:10178000FFF758F90600834B1B68DB05C8D4FFF749
:1017900051F9801B6428F6D90320E9E07E4A116DD7
:1017A0000B431365A368002B28D0FFF743F906000D
:1017B000794B1B6D9B0530D4FFF73CF9801B774BB1
:1017C0009842F5D90320D3E0A022D200934209D059
:1017D000714B1A6D72490A401A651A6D71490A40B7
:1017E0001A65DFE76C4B196D013AFF3A0A431A6537
:1017F000196D802252000A431A65D3E7FFF71AF9E0
:101800000600654B1B6D9B0507D5FFF713F9801B81
:10181000624B9842F5D90320AAE0012F21D023681A
:101820009B063CD5A369002B21D05B4B9A68012114
:101830000A439A605A6B0A435A635B4A116A8023CF
:101840009B010B431362FFF7F5F80600524B9B68B0
:101850009B0724D4FFF7EEF8801B0228F6D903205B
:1018600086E04D4A936B51490B409363D7E74A4A50
:10187000936801218B4393604B4A136A4C490B4098
:101880001362FFF7D7F80600434B9B689B0706D50A
:10189000FFF7D0F8801B0228F6D9032068E0A36A7E
:1018A000002B00D16CE00C2D49D0022B12D03A4A0B
:1018B000136840490B401360FFF7BCF80400364B37
:1018C0001B689B0139D5FFF7B5F8001B0228F6D934
:1018D00003204DE0304A136836490B401360FFF790
:1018E000A9F805002C4B1B689B0106D5FFF7A2F851
:1018F000401B0228F6D903203AE02749CB682E4A3C
:101900001340E26A206B0243606B02431343CB60D7
:101910000A6880235B0413430B60FFF78BF8040015
:101920001D4B1B689B0106D4FFF784F8001B02289F
:10193000F6D903201CE000201AE0002018E0012B5B
:1019400020D0154BDA6880235B021340E16A8B429A
:101950001AD1F0239B031340216B8B4216D1C02375
:101960001B041A40636B9A4212D1002000E0012050
:1019700003B0F0BD0120FBE70120F9E70120F7E704
:101980000020F5E70120F3E70120F1E70120EFE770
:101990000120EDE7007000400010024088130000B5
:1019A000FFFEFFFFFFFBFFFF00000140FFFFFFEF17
:1019B000FFDFFFFFFFFFFFFEFFFF02FF70B5050027
:1019C0000C00002800D1D1E06A4B1A6801231340B3
:1019D0008B4219D32B689B0706D5674AD368F02141
:1019E0008B43A9680B43D3602B68DB077BD56B68FF
:1019F000022B20D0032B40D0012B44D05E4A12682A
:101A000092051DD4012099E05A4A136801218B43A5
:101A100023431360FFF70EF80600564B1A680123A4
:101A20001340A342D6D0FFF705F8801B534A9042DB
:101A3000F3D9032082E0504A1268920300D497E061
:101A40004D49CA68032082431343CB60FEF7F2FF7F
:101A500006006B68022B1CD0032B28D0012B34D03E
:101A6000454BDB680C221A423DD0FEF7E3FF801B9A
:101A7000424B9842F4D9032060E03F4A1268920139
:101A8000DED401205AE03C4A12685207D8D4012023
:101A900054E0394BDA680C231340082B23D0FEF7AF
:101AA000C9FF801B354A9042F3D9032046E0324BF0
:101AB000DA680C2313400C2B15D0FEF7BBFF801BFC
:101AC0002E4B9842F3D9032038E02B4BDA680C23D5
:101AD0001340042B07D0FEF7ADFF801B274B984225
:101AE000F3D903202AE0234B1A6801231340A342B1
:101AF00025D82B685B0706D51F4AD36820490B40C1
:101B0000E9680B43D3602B681B0707D51A49CB68DC
:101B10001C4A13402A69D2001343CB60FFF732FC02
:101B2000154BDA6812090F231340174AD35CD840CB
:101B3000164B1860164B1868FEF734FF70BD0D4A3F
:101B4000136801218B4323431360FEF773FF0600E4
:101B5000084B1A6801231340A342CAD0FEF76AFF5C
:101B6000801B064B9842F3D90320E7E70120E5E705
:101B70000120E3E70020024000100240881300002B
:101B8000FFF8FFFFFFC7FFFF7442000808000020B6
:101B900004000020014B18687047C0460800002070
:101BA00010B5FFF7F7FF044BDA68120A072313405A
:101BB000024AD35CD84010BD001002406C420008BD
:101BC00010B5FFF7E7FF044BDA68D20A072313408A
:101BD000024AD35CD84010BD001002406C4200089D
:101BE00070B5040003689A0601D41B0573D5824BB7
:101BF0009B6BDB0000D5ACE07F4A916B80235B05DB
:101C00000B43936301231E007C4B1B68DB0500D450
:101C1000A2E0794B1A68C0239B031A4061680B400D
:101C2000934200D1ADE0C0239B020A001A409A42C1
:101C300000D1AEE0704B1A6DC0239B02100018401B
:101C40001A421FD01940814202D023689B0608D453
:101C5000A368C02292021340834213D023681B055D
:101C600010D5654B1A6D664911401D6D802000032B
:101C700028431865186D634D284018651965D2050D
:101C800000D58DE023681B050FD5A368C022920202
:101C900019001140914200D192E057490B6DA268A2
:101CA000C0208002024013430B6523689B060FD5BA
:101CB0006368C022920219001140914200D189E06C
:101CC0004D490B6D6268C0208002024013430B65D2
:101CD000012E00D188E02368DB0706D5464AD36C85
:101CE00003218B43E1680B43D36423689B0706D52C
:101CF000414AD36C0C218B4321690B43D364236885
:101D00005B0706D53C4AD36C3F490B4061690B43E6
:101D1000D36423681B0706D5374AD36C3B490B4075
:101D2000A1690B43D36423685B0606D5324AD36CA2
:101D300037490B40216A0B43D36423681B0659D5EE
:101D40002D4AD36C33490B40E1690B43D364002027
:101D500051E000231E0057E7284A116880235B00EA
:101D60000B431360FEF766FE0500244B1B68DB0582
:101D700000D54EE7FEF75EFE401B6428F5D9032030
:101D800039E0A368C02080030340934200D04AE7B3
:101D900050E7194B1B689B0300D44BE701202AE056
:101DA000FEF748FE0500144B1B6D9B0500D569E747
:101DB000FEF740FE401B184B9842F4D903201AE06E
:101DC0000D490A6815480240C020800303401343B0
:101DD0000B6062E708490A6810480240C02080038F
:101DE000034013430B606BE7034A936B0C490B40B2
:101DF000936370E7002070BD001002400070004047
:101E0000FFFFFCFFFFFFF7FFFFF3FFFFFFCFFFFF29
:101E1000FFFFFFFBFFFFF3FF88130000FFFFCFFF73
:101E2000FFFFFFEFF0B50400002356E0A6685F0057
:101E30000320B8408643C868B8403043A06060685B
:101E400090434E683609012232409A400243626054
:101E500053E0DE080836B600375905321A409200C2
:101E60000F20904087430869904002003A43325166
:101E700056E0052600E00026864030003843023256
:101E80009200444E9051444A9768EA433E00AE4364
:101E90004868C00201D53E002E433F488660C768AF
:101EA0003E0016404868800201D53E002E433A4865
:101EB000C66047683E0016404868800301D53E0072
:101EC0002E4335484660066832404868C00301D555
:101ED0002A00324330480260013308680200DA40C9
:101EE00057D001229A40050015401042F4D04E68A8
:101EF000032030400138012898D948680322024065
:101F0000032A08D0E0685E000322B24090438A684A
:101F1000B2400243E260486803220240022A98D09D
:101F200020685E0003221700B740B8434F683A406C
:101F3000B240024322604868C02292021042CBD0D5
:101F40001648426B0126324342639A08901C800077
:101F5000104E87590320184080000F268640B74353
:101F6000A026F605B44286D00D4EB4420BD00D4EDD
:101F7000B4420AD00C4EB44209D00C4EB44200D147
:101F800077E7062678E7012676E7022674E7032638
:101F900072E7F0BD00000140000401400010024063
:101FA0000004005000080050000C0050001C0050BD
:101FB000002A01D0816170478162FCE770B500287A
:101FC00013DB8308C0339B00144C1A599446032238
:101FD0001040C000FC32150085406646AE438901C2
:101FE0000A40824032431A5170BD0F230340083B20
:101FF0009B0806339B000A4A944663445A689446F9
:1020000003221040C000FC32140084406546A54302
:1020100089010A4082402A435A60E5E700E100E076
:1020200000ED00E0013880235B0498420FD2094A9A
:1020300050600948036A1B021B0AC02109060B43B2
:102040000362002393600733136000207047012070
:10205000FCE7C04610E000E000ED00E010B5FFF73F
:10206000ADFF10BD002805DB1F2202400123934075
:10207000014A13607047C04600E100E010B5FFF769
:10208000D1FF10BD70B5040003680A4ADA60FEF79C
:10209000D1FC05002368DB689B0608D4FEF7CAFC68
:1020A000401BFA239B009842F4D9032000E0002053
:1020B00070BDC0465F7F010070B504000268D36840
:1020C0005B0602D50025280070BDD36880210B4334
:1020D000D360FEF7AFFC060000252368DB685B06D3
:1020E000F1D4012DEFD0FEF7A5FC801BFA2292005F
:1020F0009042F2D921230422E2540125EDE710B5E4
:1021000004000268D36880218B43D36003689B6816
:102110009B0601D5002010BDFFF7B4FF0028FAD0C0
:1021200021230422E2540120F5E7000070B5041ECB
:102130004ED02123C35C002B0BD021230222E2547A
:102140002268D368DB060AD5002021230122E2544D
:1021500070BD20330022C254FEF7DCFBEDE7CA233A
:102160005362236853225A622000FFF7A5FF00281C
:1021700005D02368FF225A620028E9D1E5E72268EA
:10218000936814490B40936021688A6863682069EA
:102190000343A069034313438B602368E2681A6119
:1021A00021680B69A268120413430B612000FFF73A
:1021B000A6FF0028DDD12268D36C03218B43D364B2
:1021C0002168CB6CE26965692A431343CB64D0E78D
:1021D0000120BDE7BFFF8FFF70B582B004000D0086
:1021E0001600414B1868FA21C901FDF77BFF420137
:1021F000121A92001218D20001922023E35C012BE4
:1022000000D16EE020230121E15401330131E1547A
:102210002368C831596223687739596221688B680D
:102220005B0508D5019B013B0193019B002B42D02C
:10223000CB685B07F6D48B682C4803408B60206822
:10224000C368FF2119402A4B0B43C3600192019BD5
:10225000013B0193019B002B37D02268D3685B07B9
:10226000F5D5936807218B439360226893683343C5
:10227000936023685D611F4B1968802252031143EC
:10228000196099680A439A60226891688023DB018B
:102290000B439360226891688023DB000B439360BB
:1022A0002368FF225A622123FE3AE254013B0022B6
:1022B000E254002013E0FF334B62DE3B0322E25482
:1022C000013B0022E254032009E02368FF225A6206
:1022D0002123FC3AE254013B0022E254032002B0E5
:1022E00070BD0220FBE7C04608000020FFFBFFFF97
:1022F0007FFBFFFF0004014010B504000B4B802260
:1023000052035A61026893685B0402D5D3685B0587
:1023100003D421230122E25410BDD368FF211940C8
:10232000034B0B43D360FEF7B9F9F2E70004014019
:102330007FFBFFFF7047000010B503000C4A0D49FA
:10234000521A0D490968002907D00B490868C318BB
:10235000934206D8084A136010BD07490748086031
:10236000F3E700F0C3FB0C23036001204042F3E7D6
:10237000002000200004000080010020D002002086
:1023800010B5EFF3108C012282F3108801680B68FE
:10239000124C23400B608CF31088EFF3108C82F307
:1023A000108801688B6893438B608CF31088036EF0
:1023B000012B06D080232022C250002303668366AF
:1023C00010BDEFF3108183F3108802681368323474
:1023D000FF34A343136081F31088EBE7DFFEFFFFB8
:1023E00070B5040083680269134342691343C269EC
:1023F000134301680A689848024013430B6022683F
:10240000536896490B40E1680B435360A169226809
:10241000934B9A4201D0236A194393689148034031
:102420000B4393602368904A93421DD08F4A934296
:102430002BD08B4A934239D0102289498B425DD0F0
:10244000E06980231B02984200D196E0022A00D165
:10245000ECE000D8C8E0042A00D1EDE0082A00D062
:10246000CBE080200002CEE0814AD16C03220A40FA
:10247000022AE2D005D8002A30D0012A30D1033216
:10248000DBE7032A2ED10532D7E7794AD16C0C223B
:102490000A40082A28D005D8002ACED0042ACCD059
:1024A0001022CAE70C2A21D1043AC6E7704AD26C3E
:1024B000C02109010A40802109018A4218D007D8A9
:1024C000002ABAD08021C9008A4213D10422B4E77D
:1024D000C02109018A420FD10822AEE70122ACE7F0
:1024E0001022AAE71022A8E70222A6E71022A4E7FA
:1024F0000222A2E71022A0E710229EE7042A37D08A
:102500000BD8002A10D0022A05D1594B1B68DB06D4
:1025100031D458480CE0012084E0082A02D1802000
:10252000000205E001207DE0FFF73AFB002879D0AA
:1025300063685A00D218824200D982E01A038242AC
:1025400000D280E0020E1600020215005808002199
:10255000401971411A000023FDF78AFE464BC2184C
:10256000464B9A4200D970E02368D860002059E0B9
:10257000FEF708FFDAE74248DAE7022A29D005D950
:10258000042A2CD0082A0ED001204BE0002A06D0C5
:10259000012A02D1FFF714FB03E0012042E0FFF71C
:1025A000FFFA00283ED0400061684B08C018FDF7D4
:1025B00099FD0200103A334B9A4248D882B20F2359
:1025C0009A434008083B034013432268D36000202D
:1025D00028E0274B1B68DB0604D42648E3E7FEF718
:1025E000D1FEDEE72648DEE7002A08D0012A02D124
:1025F000FFF7E6FA05E0012014E0012012E0FFF702
:10260000CFFA00280ED061684B081818FDF76AFD54
:102610000200103A1B4B9A421BD823680004000C9E
:10262000D86000200023A366E36670BD104B1B68D2
:10263000DB0604D40F48E6E7FEF7A4FEE1E7104806
:10264000E1E70120EEE70120ECE70120EAE70120C5
:10265000E8E70120E6E7C046F369FFEFFFCFFFFFA1
:1026600000480040FFF4FFFF0038014000440040F4
:10267000001002400024F40000FDFFFFFFFC0F00EB
:1026800000093D00EFFF0000436A1B0706D5026802
:1026900053682C490B40416B0B435360436ADB0783
:1026A00006D50268536828490B40816A0B43536082
:1026B000436A9B0706D50268536824490B40C16AE8
:1026C0000B435360436A5B0706D502685368204991
:1026D0000B40016B0B435360436ADB0606D502686F
:1026E00093681C490B40816B0B439360436A9B06C4
:1026F00006D50268936818490B40C16B0B43936081
:10270000436A5B060BD50268536814490B40016CA1
:102710000B435360026C80235B039A420AD0436AE6
:102720001B0606D5026853680D490B40816C0B43AC
:1027300053607047026853680A490B40416C0B4371
:102740005360ECE7FF7FFFFFFFFFFDFFFFFFFEFF92
:10275000FFFFFBFFFFEFFFFFFFDFFFFFFFFFEFFFCD
:10276000FFFFF7FFFFFF9FFFF0B5C64600B505006E
:102770000C0016009846069F2B68DB6923401B1B44
:102780005A425341B34231D17B1CF5D0FEF752F986
:102790004346C01AB8422DD8002F2DD02A6813689E
:1027A0005B07E9D5802CE7D0402CE5D0D3691B0727
:1027B00010D4D3691B05DFD580231B0113622800C9
:1027C000FFF7DEFD84232022EA500C3B0022EA546E
:1027D00003200CE0082414622800FFF7D1FD8423B5
:1027E000EC500C3B0022EA54012000E0002080BCA9
:1027F000B846F0BD0320FAE70320F8E7F0B5C64677
:1028000000B582B004000D0017001E00C36F202B1E
:102810005BD100295ED0002A5ED0826880235B01F4
:102820009A4204D10369002B01D1CB0756D48423EB
:102830000022E250633BE367FEF7FCF8804650233A
:10284000E7520233E752A26880235B019A4201D02B
:10285000002713E02369002B24D000270EE020235B
:10286000E367032032E03B882268DB05DB0D9362DF
:1028700002375223E25A013A92B2E2525223E35A09
:10288000002B12D000964346002280212000FFF743
:102890006BFF0028E3D1002DE5D02A7823689A62E7
:1028A0000135E6E72F000025E8E7009643460022C1
:1028B00040212000FFF758FF002802D12023E367C2
:1028C00004E02023E367032000E0022002B080BC84
:1028D000B846F0BD0120F9E70120F7E70120F5E750
:1028E00030B583B0040084230022C250FEF7A2F862
:1028F000050023681B681B070FD423681B685B0750
:1029000029D42023E3678022A35000232366636633
:10291000083AA354002003B030BD8021224B00931D
:102920000300002289032000FFF71EFF0028E4D0E7
:10293000EFF31081012383F310882268136880204D
:102940008343136081F310882023E3675833002208
:10295000E2547D38DFE78021134B00932B000022E7
:10296000C9032000FFF700FF0028CAD0EFF3108052
:10297000012282F3108821680B680C4D2B400B60FC
:1029800080F31088EFF3108082F3108821688B6841
:1029900093438B6080F3108880231F32E250083B02
:1029A0000022E2540320B6E7FFFFFF01DFFEFFFF36
:1029B00010B5041E2ED0C36F002B21D02423E36753
:1029C0002268136801218B431360636A002B1DD1B9
:1029D0002000FFF705FD012811D0226853680E4939
:1029E0000B405360226893682A218B4393602268CE
:1029F000136829390B4313602000FFF771FF10BDE6
:102A000078330022C254FDF79FFFD7E72000FFF77D
:102A10003BFEDDE70120F2E7FFB7FFFF0D488546EB
:102A2000FFF788FC0C480D490D4A002302E0D458FA
:102A3000C4500433C4188C42F9D30A4A0A4C002308
:102A400001E013600432A242FBD300F055F8FDF719
:102A5000E7FEFEE700200020000000205C000020D0
:102A6000444300085C000020CC020020FEE7000088
:102A700030B5140005001A009BB0002C05DA8B233A
:102A80000360012040421BB030BD00231993230096
:102A900000910491591E8B41E31A02930593084B50
:102AA000694603931E9B00F0ADF9431C01DA8B23AA
:102AB0002B60002CE7D00022009B1A70E3E7C04691
:102AC0000802FFFF13B5044C009313000A00010035
:102AD0002068FFF7CDFF16BD0C0000200300821810
:102AE000934200D1704719700133F9E7014B186820
:102AF0007047C0460C00002070B500260C4C0D4DF0
:102B0000641BA410A64209D1002601F021FB0A4C47
:102B10000A4D641BA410A64205D170BDB300EB584A
:102B200098470136EEE7B300EB5898470136F2E7D5
:102B30003C4300083C430008404300083C43000875
:102B40007047704770B50500002910D00C1F23682E
:102B5000002B00DAE418280000F0E0F81D4A1368A2
:102B6000002B05D163601460280000F0DFF870BD11
:102B7000A34208D9206821188B42F3D119685B68F9
:102B800009182160EEE71A005B68002B01D0A34210
:102B9000F9D911685018A0420BD1206809185018B3
:102BA00011608342E0D118685B684118116053607E
:102BB000DAE7A04202D90C232B60D5E72068211860
:102BC0008B4203D119685B68091821606360546007
:102BD000CAE7C046C802002070B50F4C0E0021683D
:102BE0000500002902D100F08FFB20603100280091
:102BF00000F08AFB431C03D101246442200070BD15
:102C00000323C41C9C43A042F8D0211A280000F0E2
:102C10007BFB0130F2D1EFE7C4020020F7B50322BD
:102C2000CB1C9343083305001F000C2B34D20C2718
:102C3000B94233D8280000F071F8374E33681C00D1
:102C4000002C2FD139002800FFF7C6FF0400431CD9
:102C50005FD134680094009B002B4AD19C4252D033
:102C600023682800E3180099019300F04DFB019BB5
:102C7000834248D123682800FF1A3900FFF7ACFFD0
:102C8000013040D02368DB19236033685A68002A7A
:102C900033D1009B336019E0002BC9DA0C232B6081
:102CA0000020FEBD2168C91B20D40B290AD9E219D6
:102CB0002760A34204D1326063681160536005E06D
:102CC0005A60F9E76268A3420ED13260280000F032
:102CD0002DF8200007220B30231D9043C21A984282
:102CE000DFD01B1AA350DCE75A60EFE723006468CB
:102CF000A6E7009C63680093ADE71A005B68A342F7
:102D0000FBD10023DAE70C2328002B6000F00EF83B
:102D1000C6E70760DAE7C046C802002010B50248DF
:102D2000FFF70EFF10BDC046C002002010B50248DC
:102D3000FFF707FF10BDC046C0020020F0B58D6848
:102D400085B01E000C002B0002900392B54254D8AF
:102D50000C22885E9022D20010422CD003220969F6
:102D600023685B1A019363695343DA0FD318019AFE
:102D70005F10731C9B183A00BB4201D91F001A0058
:102D8000400527D511000298FFF748FF051E2AD0FD
:102D9000019A216900F0D5FAA289194B1A408023C3
:102DA0001343A381019B2561ED18FB1A2560A360E5
:102DB0003500330067611E0032000399206800F07F
:102DC0008FFA0020A3685B1BA36023689B19236014
:102DD00005B0F0BD029800F0BDFA051EE2D12169F0
:102DE0000298FFF7AFFE0C230120029A40421360C5
:102DF000A28934331343A381EAE73500DCE7C046F8
:102E00007FFBFFFFF0B59FB002901C008B890F0085
:102E100016001B0612D50B69002B0FD14021FFF7BE
:102E2000FDFE38603861002806D10C23029A136039
:102E3000012040421FB0F0BD40237B61002306AD5E
:102E40006B6120336B761033AB76059434002378B6
:102E5000002B01D0252B43D1A31B0393B4420BD0ED
:102E6000320039000298FFF769FF013000D1A4E079
:102E70006B69039A9B186B612378002B00D19CE04F
:102E80000122002352426A6002AA533201342B60AD
:102E9000EB60AB601370AB654F4E052221783000BC
:102EA00000F044FA2A68611C00281BD1D30603D520
:102EB000202302A853300370130703D52B2302A845
:102EC0005330037023782A2B13D000200A21EB689B
:102ED0002278303A092A4FD9002812D0EB6010E04E
:102EE0000134B4E70123801B834013430C002B60A3
:102EF000D2E7059B181D1B680590002B36DBEB60A5
:102F00000C0023782E2B0CD163782A2B39D1059B0A
:102F100002341A1D1B680592002B01DA01235B4263
:102F20006B602E4E03223000217800F0FFF900285C
:102F300006D04023801B83402A68013413432B6052
:102F4000217806222648297600F0F0F900283AD0A8
:102F50002448002827D10722059B073393430833D1
:102F600005936B69661C1B186B616FE75B42EB6036
:102F7000022313432B60C3E74B43012001349B180A
:102F8000A6E700230A201A0001346B60217830394B
:102F9000092903D9002BC4D06A60C2E74243012348
:102FA00001345218F2E705AA009229003A000E4BAC
:102FB000029800E000BF431CD3D1BB895B0600D55B
:102FC00036E7686936E705AA009229003A00064B01
:102FD000029800F07BF8EEE7844200088A4200087D
:102FE0008E420008000000003D2D0008F7B51600D5
:102FF00001938A680B690C000090934200DA130079
:103000002200336043321278002A01D0013333604A
:1030100023689B0602D53368023333602268062397
:1030200015001D401A4227D0230043331B785A1E37
:1030300093412268920630D4220001990098089D9D
:103040004332A847013025D00622236800251340CB
:10305000042B05D13368E568ED1AEB43DB171D40FF
:10306000A3682269934201DD9B1AED180026B54240
:1030700020D1002010E00135E36832689B1AAB4292
:10308000D2DD2200012301990098089F1932B84728
:103090000130F0D101204042FEBD3020E118433123
:1030A000087021005A1C45310978A21843320233B6
:1030B0001170C1E72200012301990098089F1A327C
:1030C000B8470130E6D00136D1E70000F0B58BB04B
:1030D0000793059006920A7E0C004331109B0391E2
:1030E000782A09D8622A0BD8002A00D1BAE07A4996
:1030F0000491582A00D18EE0250042352A7022E042
:10310000100063381528F7D8FCF7E2FF16001F00FF
:10311000F6FFF6FFF6FFF6FF1F00F6FFF6FFF6FFDD
:10312000F6FF9F0035007E00F6FFF6FFB000F6FFC9
:103130003500F6FFF6FF820025001A684235111DA2
:10314000196013682B7001239EE01A682068111D16
:103150001960050601D5166803E04006FBD500237B
:10316000D65E002E03DA2D23039A764213705A4B53
:103170000A27049313E01A68216840CA080602D49B
:10318000490600D5B6B21A60237E534A0A27049234
:103190006F2B00D1023F2300002243331A70636873
:1031A000A360002B06DB04212268039D8A43226072
:1031B00033430CD0039D30003900FDF719F8049B10
:1031C000013D5B5C2B70330006009F42F3D9082F52
:1031D00009D12368DB0706D5626823699A4202DCBD
:1031E0003023013D2B70039B5B1B2361079B210058
:1031F00000930598069B09AAFFF7F8FE013048D115
:10320000012040420BB0F0BD202221680A43226019
:10321000782232490491210045310A7019682268E8
:1032200040C9100602D4500600D5B6B21960D307C3
:1032300002D5202313432360002E01D01027AAE7D4
:103240002022236893432360F8E71A682568101D3D
:103250006169186013682E0601D5196002E06D06D9
:10326000FBD519800023039D2361BFE71A68111D58
:103270001960156800212800626800F057F80028DE
:1032800001D0401B6060636823610023039A1370C0
:10329000ACE72A00236906990598079DA8470130E5
:1032A000AED023689B0715D4099BE0689842A9DA41
:1032B0001800A7E72200012306990598079E1932F6
:1032C000B04701309CD00135E368099A9B1AAB42A4
:1032D000F0DCE9E70025F7E795420008A642000880
:1032E00010B5884202D98B18984209D300239A421C
:1032F00008D0CC5CC4540133F9E7013A8B5C8354A9
:10330000002AFAD110BD0000002370B5064C05005C
:1033100008002360FFF710F8431C03D12368002B3B
:1033200000D02B6070BDC046BC020020C9B282181C
:10333000904201D10020704703788B42FBD00130CE
:10334000F6E7002310B59A4200D110BDCC5CC454FE
:103350000133F8E7F7B506000C001500002905D188
:103360001100FFF75BFC04002000FEBD002A03D122
:10337000FFF7E8FB2C00F7E700F01CF80700854298
:1033800002D84308AB42EFD329003000FFF746FCD8
:103390000190002801D1019CE6E72A00BD4200D936
:1033A0003A0021000198FFF7CCFF21003000FFF721
:1033B000C9FBF0E70B1F1B68181F002B01DA0B5825
:1033C000C0187047F0B545465746DE464E46E0B554
:1033D00004000D0090469A4683B08B422ED82BD025
:1033E00051464046FCF782FF290006002000FCF70A
:1033F0007DFF331A9946203B31D442469A409B4682
:10340000170043464A4693401E00AF4237D8AF42AA
:1034100000D175E05A46A41BBD41002A00DA72E0D3
:10342000012300200021934000900191019301238A
:103430004A469340009326E08242D1D900220023DD
:10344000009201930C9B002B00D030C3009801998F
:1034500003B0F0BCBB46B246A946A046F0BD4A4602
:103460009B46202341469B1AD9400B005146914070
:103470004A465F18434693401E00AF42C7D9002218
:1034800000230092019349460029DBD0FB079C46AC
:10349000720862440E007B080EE0AB4201D1A242EA
:1034A0000CD8A41A9D41012024196D410021013E30
:1034B00024184D41002E06D0AB42EED9013E24190E
:1034C0006D41002EF8D1009801995A4600196941C2
:1034D000002A23DB2B004C46D3402A005E46E24004
:1034E0001C001500002E29DB1F00B7403B00260002
:1034F0004F46BE403200801A994100900191A1E7E9
:10350000A342BCD886E74A46202300219B1A00220A
:10351000009101920122DA40019288E74E46202371
:103520002A009B1B9A402300F3404C46D3182A00E4
:103530005E46E2401C001500002ED5DA4F462023DF
:103540002600DB1BDE40B4461600BE403300634459
:10355000CDE7C046F0B54F464646D6464502C0B513
:10356000C30F470099460E1C6D0A3F0E5AD0FF2F1D
:1035700021D08023ED00DB041D43002398469A46AA
:103580007F3F74027300640A1B0EF60F002B1FD0DE
:10359000FF2B42D080220020E400D20414437F3B62
:1035A0004A46FF1A434672400F2B00D99CE07149EE
:1035B0009B00CB589F46002D59D108239846063BC7
:1035C00074029A467300640A1B0EF60F002BDFD1BB
:1035D000002C3BD101234A464146724019430E2933
:1035E00018D86548890041588F465346022B00D1B0
:1035F000B9E0032B6ED04A462C00012B40D10020AD
:103600000024C0052043D2071043E0BCBA46B146AF
:10361000A846F0BDFF200024F3E7002C20D10223B0
:10362000FF3FD8E7002D05D104239846033B002730
:103630009A46A6E72800FCF73BFE7627431F9D40ED
:1036400000237F4298469A463F1A9AE72000FCF7EB
:103650002FFE431F9C4076235B421B1A00209FE7EE
:10366000032342461A4390460320FC3398E70C2379
:103670009846093BFF279A4683E703282CD032005F
:1036800038007F30002847DD630704D00F23234034
:10369000042B00D00434230103D53800374B80308D
:1036A0001C40FE28B6DCA401640AC0B2A9E780244D
:1036B0000022FF20E403A4E78023DB031D4201D0A6
:1036C0001C420BD08024E4032C4364024A46FF20B2
:1036D000640A96E74E462C008023DB031C436402F9
:1036E0003200FF20640A8CE76D01600185422ED212
:1036F0001B230024013F0126290064006D000029DE
:1037000001DB854201D32D1A3443013B002BF3D159
:103710006B1E9D412C43B3E703001A3300DA6EE7BA
:10372000012321001B1A9E37D940BC400B00611EAB
:103730008C412343590704D00F211940042900D09C
:103740000433590113D49B0100205C0A59E71A2362
:1037500001242D1ACFE7981E4342584140423200BF
:103760000024C0B24DE74A46FF20002449E701206B
:10377000002446E7B8420008F8420008FFFFFFF7C0
:1037800030B543024200C50F48025B0A440A4800B4
:103790009C46120E000EC90FFF2A11D0FF280CD034
:1037A000012382420AD1A44508D18D4211D0002ABA
:1037B00004D163465A1E934100E00123180030BD36
:1037C0000123FF28FAD162462243F7D12B004B4058
:1037D000F4E70023F2E7C04643025B0A42009C463E
:1037E000C30F480210B5440A4800120E000EC90F5C
:1037F000FF2A1AD0FF280BD0002A24D162460028C5
:103800001ED1002C2ED0002A32D1480001380BE006
:10381000002C2AD1002A02D16246002AF5D08B4220
:103820001DD001205B42184310BD6246002A1CD106
:10383000FF28F6D1002C18D120008B42F1D1F3E7FC
:10384000002AE2D0EBE70028EBD08B42E9D182429C
:10385000E7DC04DBA445E4D80020A445E4D258000A
:103860000138E1E7002ADFD0DBE702204042DBE756
:103870008B42D6D1EEE7C04643025B0A42009C462B
:10388000C30F480210B5440A4800120E000EC90FBB
:10389000FF2A15D0FF280BD0002A1AD16246002833
:1038A0001DD1002C22D0002A32D1480001380FE06F
:1038B000002C0CD1002A14D16246002AF5D010E069
:1038C0006246002A03D1FF2805D1002C1CD002201B
:1038D00010BD00280DD101205B421843F8E7002AF3
:1038E000E3D08B42F7D158000138F1E7002AEFD03E
:1038F000F1E78B42EFD18242EDDCF4DBA445EAD85C
:103900000020A445E4D2EEE720008B42E3D1DFE7BC
:103910008B42E0D1F2E7C046F0B54646D6464F4668
:103920004402C0B5C30F460098460D1C640A360E0B
:1039300000D1CBE0FF2E6ED08023E400DB041C43DB
:10394000002399469A467F3E6F026B007F0A1B0E4A
:10395000ED0F002B6DD0FF2B00D1A6E07F3BF618BA
:103960004B460A2B00DD82E08023FF00DB041F436F
:1039700043466B4098464B460022022B0FDD4946DA
:1039800001238B40A621C9000B4200D06FE090219B
:1039900089000B4200D0D3E08821194264D1200C69
:1039A0002404240C21003B0C3F043F0C79435C436E
:1039B00047435843E4190B0C1B199F4202D980223C
:1039C0005202801809041A04090C52189401611E4D
:1039D0008C411B0C920E1B1814439B011C431B01B2
:1039E00000D5CDE030007F30002800DCAEE063077A
:1039F0000BD00F2332002340042B06D004342301C4
:103A000003D580321000684B1C40FE2866DCA30101
:103A10005B0AC0B21EE0002C00D08BE00823994660
:103A2000063B6F029A466B007F0A1B0EED0F002BC0
:103A300091D1002F61D14A4601231A4391460A2AA7
:103A400015DC43466B4098464B460122022B96DC20
:103A500000200023C00518434346DD072843E0BC8F
:103A6000BA46B146A846F0BDA8463C009246534629
:103A7000022B33D0032B11D0012BE9D03000803042
:103A8000721C002863DD6307B9D00F232340042B89
:103A9000B4D1B4E70F2A78D0A8463C008023DB03DA
:103AA00023435B02FF205B0AD4E7FF36002F2FD1B0
:103AB00002234A4613430A2BD9DC42466A40904609
:103AC0004A46002A0AD09946022258E7002C08D11B
:103AD00004239946033B00269A4635E7FF2000233E
:103AE000B8E72000FCF7E4FB7626431F9C40002348
:103AF000764299469A46361A26E73800FCF7D8FBF4
:103B00004B46361A763E0A2BB1DC053887402FE744
:103B100003234A461A4313000A2ABBDC42466A4082
:103B2000904601229A40882113000322194200D1B5
:103B300035E799E70C239946093BFF269A4603E7A8
:103B4000002398468023FF20DB0383E73200030035
:103B50001A3300DA7CE79E320123210094401B1ABD
:103B6000D940621E94410C43630704D00F232340C5
:103B7000042B00D00434630111D50120002369E730
:103B8000012362081C40144378E78023DB031C42B6
:103B900084D01F4282D1A846FF203B435AE7A301AD
:103BA00000205B0A56E7C046FFFFFFF7F0B5C646A8
:103BB00047027B0A4A0245009C46C40F530A48004C
:103BC000984600B52D0EBF09000ECE0F9209FF28B2
:103BD00000D171E001235E402B1AB4423CD0002B8F
:103BE00000DC9CE1002800D1A3E0FF2D00D18BE098
:103BF0008021C9040A431B2B00DCFBE0013F7B0151
:103C000000D47BE001277F42BF01B9090E00080004
:103C1000FCF74EFB330005388340854200DCD2E0E0
:103C2000B44F2D1A1F405A0700D1F6E00F2213405F
:103C3000042B00D1F1E004377B0100D4EDE0681CD7
:103C4000FE2D00D090E0FF200022C0051043E407C5
:103C5000204380BCB846F0BD002B00DC77E1002893
:103C60006FD1002A4CD0591E012B00D146E1FF2B09
:103C70004AD01B296ADC0B0011002020D940C31A4E
:103C80009A40531E9A410A43BF188023DB041F4207
:103C900000D1BBE00135FF2DD5D0974A79081140FE
:103CA000012217400F437A0700D09AE01F42C6D185
:103CB000FB089C462B004DE02B00FF3B002A2ED139
:103CC00001214E40B44200D1B4E0002B50D0002D71
:103CD00000D0EAE0FF23002F00D1FAE0591E012BAB
:103CE00000D15CE1FF2B00D13DE11B2900DC22E18A
:103CF000571E340005007B0100D583E72B000437F5
:103D0000FA089446FF2B25D16346002B9BD08022D6
:103D10006346D2031A435202FF20520A95E7B44287
:103D200000D1A4E0002B23D0002DD3D0C446340012
:103D3000EDE7002AE4D0012B39D0FF2BE4D0013B82
:103D400059E7FF2DE0D01B2B00DCA6E00537FB0870
:103D50009C462B0062465202520AD8B275E70120F7
:103D60003A007B0100D43FE1C0B2BA01520A6CE7CD
:103D7000FE216B1C194252D1002D00D0ACE0002F67
:103D800000D11AE1002A00D1F4E08021BB1AC90455
:103D90000B4200D13CE10124D71B3440002F46D018
:103DA00001200F42E1D1FB089C460023D2E7BF1A55
:103DB0007A0100D4DAE0BD01A809FCF779FAAB0971
:103DC0000538834001252022401B0130121A1F00B4
:103DD0009340C7405A1E93411F4328D000257B07BC
:103DE000BDD00F233B40042B00D024E77B0100D53E
:103DF00025E75DE711002020D940C31A9A40531EE1
:103E00009A410A43BF1A7B0100D5FDE67B0704D027
:103E10000F233B40042B00D00DE72B0070E7BB1AAB
:103E200019005B0162D4002900D0EFE600240020D5
:103E300000220AE7002B1CD0002D00D003E7FF234F
:103E4000002F47D0591E012B58D0FF2B00D18BE0FB
:103E50001B2900DD90E00B0039002025D940EB1A2A
:103E60009F407B1E9F410F430500BF180DE7002BAD
:103E700017D1FE216B1C19421BD1002D00D080E010
:103E8000002F00D1AEE0002A74D0BA18530100D43C
:103E9000AAE092010120520AD7E68021C9040A4310
:103EA000EAE6002DCBD0C44631E73400FF200022E3
:103EB000CBE6FF2B00D1C6E6BA185208510705D051
:103EC0000F21171D1140042900D019E7D20894468C
:103ED00040E73400170013E7002F75D1002A00D007
:103EE0009DE080220024FF20D203AEE60124D11BF6
:103EF00034408BE6FFFFFFFBFFFFFF7DBB185A013D
:103F000000D494E04D4A5B081A40590700D192E072
:103F10000F210B40042B6ED00223171DF0E6002B5F
:103F200000D125E7411B0B00002D00D1D3E68023F3
:103F3000DB041F43D9E63B002024CB40611A8F40AD
:103F4000791E8F411F4334000500D71B5BE7002B10
:103F50008FD0431B002D00D172E71B2B0CDC80217E
:103F6000C9040F4378E73400C446CDE6FB089C46FD
:103F70000123EFE60023EDE60532D3089C4603005B
:103F8000E8E6002FF0D0002A37D08023DB039C45E1
:103F900000D2BCE6984500D3B9E6C446B7E6D31BC9
:103FA0005A0130D59B019C092000FCF781F92300C0
:103FB000053883403400012505E7002A18D0012484
:103FC0000023C4463440C5E6002A16D08023DB0314
:103FD0009C4500D29BE6984500D398E60124C44650
:103FE000344094E6002A04D0D3089C460023B1E66E
:103FF0000024002029E6023B68E780226346D203C2
:10400000FF201A4321E6DB089C4634000123A1E689
:10401000002B00D10AE7DB089C4600239AE68022A9
:1040200043460124D203FF201A4334400DE6DB0847
:104030009C4601238EE6022348E7C046FFFFFF7D32
:1040400010B504000020002C0ED02000FCF730F941
:1040500003009E20C01A072B09DD082B2CD0083B3B
:104060009C406402640AC0B2C005204310BD042B0A
:1040700016DD052B01D05A1F9440114A22406107DA
:104080000AD00F212140042906D00432510103D562
:104090009F200B49C01A0A409201540AC0B2E3E7BC
:1040A0001A0021001B3291400A00511E8A4105214D
:1040B000C91ACC401443E0E764029620640AD3E7AF
:1040C000FFFFFFFB70B542024300C40FFE201B0E32
:1040D000591C550A08420BD0E02189006D07120BCC
:1040E0005B181B051343E40723432800190070BD28
:1040F000002B14D1002D1BD02800FCF7D9F80A287A
:104100001CDC0B232A001B1ADA40030015339D40E8
:104110000D4B12031B1A5B05120B5B0DE1E7002D23
:1041200009D0130B802212031A436D07074BD8E7FF
:1041300000230022D5E70022044BD2E703002A0027
:104140000B3B9A400025E3E789030000FF070000CE
:10415000F8B5C046F8BC08BC9E467047F8B5C046E6
:08416000F8BC08BC9E46704744
:104168005363616E6E696E67204932433220616421
:104178006472657373657320307830382E2E30780A
:1041880037370D0A0000000049324320646576691C
:10419800636520666F756E64206174203078253001
:1041A80032580D0A000000004E6F20493243206447
:1041B80065766963657320666F756E640D0A000025
:1041C8005348543430206E6F7420726573706F6E6C
:1041D80064696E6720617420307834340D0A0000F9
:1041E80053485434302072656164206661696C6597
:1041F800640D0A005348543430204F4B2020543D5E
:10420800252E32662043202052483D252E32662036
:1042180025250D0A000000000D0A426F6F74696EB3
:104228006720534854343020746573740D0A0000B5
:104238004C434420696E69742064697361626C65DB
:104248006420666F722074686973207465737420C3
:104258006275696C640D0A00030406080C101820C6
:10426800300000000000000001020304000000000C
:10427800000000000102030406070809232D302B63
:104288002000686C4C00656667454647003031324F
:1042980033343536373839414243444546003031A6
:1042A8003233343536373839616263646566000005
:1042B800E836000814360008FE3500087A3600088B
:1042C800FE350008AE360008FE3500087A360008CC
:1042D8001436000814360008AE3600087A3600088E
:1042E800EA350008EA350008EA350008B83600085B
:1042F8001436000814360008FE3500085637000842
:10430800FE350008AE360008FE35000856370008AE
:104318001436000814360008AE3600085637000870
:0C432800EA350008EA350008EA35000814
:0843340090F0FF7F0100000082
:04433C0079030008F9
:044340004D03000821
:104344000100000004000000000020001000002014
:104354000000000084010020EC0100205402002031
:104364000000000000000000000000000000000049
:104374000000000000000000000000000000000039
:104384000000000000000000000000000000000029
:0C4394000000000000000000000000001D
:0400000508002A1DA8
:00000001FF
