:020000040800F2
:1000000000200020CD1A0008EF040008F1040008C9
:1000100000000000000000000000000000000000E0
:10002000000000000000000000000000F3040008D1
:100030000000000000000000F5040008F7040008BC
:100040001D1B00081D1B00081D1B00081D1B0008B0
:100050001D1B00081D1B00081D1B00081D1B0008A0
:100060001D1B00081D1B00081D1B00081D1B000890
:100070001D1B00081D1B0008000000001D1B0008C0
:10008000000000001D1B0008000000000000000030
:100090001D1B0008000000001D1B00081D1B0008A0
:1000A0001D1B00081D1B00081D1B00081D1B000850
:1000B0001D1B00081D1B00081D1B00081D1B000840
:1000C000002243088B4274D303098B425FD3030A97
:1000D0008B4244D3030B8B4228D3030C8B420DD3AA
:1000E000FF22090212BA030C8B4202D31212090238
:1000F00065D0030B8B4219D300E0090AC30B8B4276
:1001000001D3CB03C01A5241830B8B4201D38B0323
:10011000C01A5241430B8B4201D34B03C01A5241C8
:10012000030B8B4201D30B03C01A5241C30A8B420B
:1001300001D3CB02C01A5241830A8B4201D38B02F6
:10014000C01A5241430A8B4201D34B02C01A52419A
:10015000030A8B4201D30B02C01A5241CDD2C3090C
:100160008B4201D3CB01C01A524183098B4201D388
:100170008B01C01A524143098B4201D34B01C01A73
:10018000524103098B4201D30B01C01A5241C308EB
:100190008B4201D3CB00C01A524183088B4201D35A
:1001A0008B00C01A524143088B4201D34B00C01A46
:1001B0005241411A00D20146524110467047FFE7B2
:1001C00001B5002000F006F802BDC0460029F7D0B6
:1001D00076E770477047C046002B11D1002A0FD137
:1001E000002900D1002802D00021C943080007B42B
:1001F000024802A14018029003BDC046D9FFFFFF8C
:1002000003B4684601B5029801F0B6FC019B9E4616
:1002100002B00CBC7047C04610B5002903D100F0F5
:1002200007F8203002E0080000F002F810BDC046D8
:100230001C2101231B04984201D3000C10391B0A16
:10024000984201D3000A08391B09984201D30009DA
:10025000043902A2105C40187047C0460403020231
:100260000101010100000000000000000448054BEE
:1002700010B5834203D0044B002B00D0984710BD2B
:100280000C0000200C000020000000000648074978
:10029000091A8B10C90FC91810B5491003D0044BA7
:1002A000002B00D0984710BD0C0000200C0000204F
:1002B0000000000010B5074C2378002B09D1FFF790
:1002C000D5FF054B002B02D0044800E000BF0123FE
:1002D000237010BD0C00002000000000081D000865
:1002E000054B10B5002B03D00449054800E000BFC2
:1002F000FFF7CCFF10BDC04600000000100000203A
:10030000081D0008F0B58BB005AC142200212000B8
:1003100001F005FC1F4BD96A04221143D962D96A46
:100320000A400192019AD96A80221143D962D96A9E
:100330000A400292029ADA6A01263243DA62DA6AE3
:1003400032400392039AD96A02221143D962DB6ACE
:100350001A400492049BA027FF05002220213800A8
:1003600001F066F880239B01059384239B03069389
:10037000002507952100084800F094FF20230593ED
:100380000696079508952100380000F08BFF0BB00A
:10039000F0BDC0460010024000080050FEE700001B
:1003A00010B50C480C4B03600023436083600C22A3
:1003B000C2601432026143618361C36103624362BC
:1003C0008362C362036300F03BF9002800D110BDD3
:1003D000FFF7E4FFB00000200024004010B50B48F8
:1003E0000B4B0360E1235B02436000238360C36027
:1003F00003610C2242618361C3610362436201F0C5
:100400002DFB002800D110BDFFF7C8FF28000020F9
:100410000044004030B59DB00EAC382200212000D1
:1004200001F07DFB1422002109A801F078FB2422B1
:100430000021684601F073FB1F490A681F4D2A40DE
:1004400080231B0113430B6001F000F81C4A136D5D
:100450002B40136514230E93EC331093FF3B15933D
:1004600000231693A022120217921893200000F086
:1004700021FA00281AD109A80F2309930023436009
:100480008360C3600361002100F0D8FC00280FD115
:100490006846222300930023049380235B02019388
:1004A00000F0DEFD002805D11DB030BDFFF776FF5E
:1004B000FFF774FFFFF772FF00700040FFE7FFFFD8
:1004C0000010024010B500F065F9FFF7A3FFFFF739
:1004D00019FFFFF765FFFFF781FFA0202021C0056E
:1004E00000F0ACFFFA20400000F07AF9F5E7FEE7F3
:1004F000FEE77047704710B500F060F910BD0000CE
:10050000054B5A6B01210A435A63996B80225205AD
:100510000A439A637047C04600100240F0B589B0A4
:1005200004001422002103A801F0F9FA22681D4BEF
:100530009A4201D009B0F0BD1B4B996B802292000A
:100540000A439A63DA6A01210A43DA62DA6A0A40E4
:100550000192019ADA6A02252A43DA62DB6A2B40A9
:100560000293029B03AC114B039304950E00079179
:10057000A0202100C00500F095FE0D4B03930495CB
:10058000002705970697079621000A4800F08AFE83
:10059000042303930495059706972100054800F06E
:1005A00081FEC7E70024004000100240C20700009F
:1005B0003B0600000004005010B586B00400142271
:1005C000002101A801F0ABFA2268104B9A4201D039
:1005D00006B010BD0E4B996B802292020A439A63BB
:1005E000D96A01221143D962DB6A1A400092009B4A
:1005F00001A90C2301930A3B4B600133CB6001330B
:100600000B61A020C00500F04DFEE1E70044004072
:100610000010024070B5040000F0DCF8050023680B
:100620009B689B060AD400F0D5F8401BFA239B0078
:100630009842F4D90123A363032000E0002070BD99
:1006400070B5041E00D178E03523C35C002B13D0B5
:1006500035230222E2542268136801218B43136080
:1006600000230F2B0ED82268191D89005218002173
:1006700051600133DBB2F4E734330022C254FFF798
:100680004DFFE5E72268936804210B4393602168DE
:100690004B682B4A1A406368A0680343A06A03436F
:1006A000E06A0343E0690343206A0343A06903430C
:1006B000606A034313434B602000FFF7ABFF2168E0
:1006C0000B68FE2293431A00E368206903436069C4
:1006D0000343206B034313430B602268136801211B
:1006E0000B43136000F076F8050023689B68DB0776
:1006F0000AD400F06FF8401BFA239B009842F4D90B
:100700000823A363032070BD00F064F8050023688C
:100710009B68DB060AD400F05DF8401BFA239B00BF
:100720009842F4D91023A3630320ECE70023A363CA
:1007300035330122E2540020E5E70120E3E7C0461B
:100740000F0000FC70B505000F4B1C680F4B1978AB
:10075000FA208000FFF7B4FC01002000FFF7B0FC96
:1007600000F0D2FE00280DD1032D01D901200AE0AE
:10077000013000222900404200F0C2FE044B1D60FF
:10078000002000E0012070BD0800002000000020D3
:100790000400002010B5084A136840210B43136081
:1007A0000020FFF7CFFF041E02D00124200010BD5F
:1007B000FFF7A6FEFAE7C04600200240034A116890
:1007C000034B1B785B1813607047C046EC00002099
:1007D00000000020014B18687047C046EC00002064
:1007E00070B50400FFF7F6FF0500631C02D0044B50
:1007F0001B78E418FFF7EEFF401BA042FAD370BD50
:100800000000002010B5264BD9680C230B40082BA4
:1008100042D00C2B07D0042B34D1214B1B68DB06B4
:100820003CD5204837E08A0C0F2313401E4AD25C87
:10083000890D032319400131194BDB68DB0309D50E
:1008400053019B1A9801C01AC00080184002FFF79C
:1008500037FC20E0124B1B68DB0609D553019B1ABD
:100860009801C01AC00080180002FFF729FC12E0AE
:1008700053019B1A9801C01AC00080188002FFF72C
:100880001FFC08E0064B5A68520B07231340013344
:1008900080200002984010BD0448FCE70448FAE7B5
:1008A0000010024000093D00201D000800127A00DF
:1008B0000024F400F0B583B0041E00D197E2C24BCF
:1008C000DA680C251540DA6880235B021A401700AD
:1008D0000368DB0736D5082D2CD00C2D28D0636893
:1008E0008022520293424DD0A022D20293424ED097
:1008F000B54B1A68B5490A401A601A688021490246
:100900000A400192019A1A68B1490A401A60636864
:10091000002B48D0FFF75EFF0600AB4B1B689B0324
:1009200010D4FFF757FF801B6428F6D903205FE23D
:10093000002AD4D0A44B1B689B0303D56368002B0B
:1009400000D157E223689B0764D5E368042D3AD0B1
:100950000C2D36D0002B00D1AFE09B490A6809204E
:10096000824313430B60FFF735FF0600964B1B686D
:100970005B0700D598E0FFF72DFF801B0228F5D913
:10098000032035E2904A11680B431360BFE78E4B9A
:1009900019688022D2020A431A6019688022520222
:1009A0000A431A60B3E7FFF715FF0600864B1B6882
:1009B0009B03C7D5FFF70EFF801B6428F6D90320E1
:1009C00016E2002FC6D1804A1268520702D5002BCA
:1009D00000D111E27C4842687E490A40216909023F
:1009E0000A434260026809218A43134306000360F8
:1009F000FFF708FFF26812090F231340764AD35C11
:100A0000D840764B1860764B1868FFF79BFE00289D
:100A100000D0EDE12368DB062DD5002D60D16A4BB7
:100A20001B689B0503D5E369002B00D1E6E1664A0C
:100A300053686C490B40616A0B43536053681B0257
:100A40001B0A216A09060B435360616A490B013195
:100A500080231B028B40D16809090F220A405E499E
:100A60008A5CD3405D4A13605D4B1868FFF76AFEED
:100A7000002800D0BCE123681B077DD56369002BEB
:100A800067D0514A136D01210B431365FFF7A2FE96
:100A900006004D4B1B6D9B076ED4FFF79BFE801B22
:100AA0000228F6D90320A3E147494B68494A13407D
:100AB0002269120213434B60ACE7434A13680121D9
:100AC0008B431360FFF786FE06003F4B1B685B07F6
:100AD000A0D5FFF77FFE801B0228F6D9032087E10F
:100AE000E369002B22D0384A116880235B000B4356
:100AF0001360FFF76FFE0600334B1B689B0506D49F
:100B0000FFF768FE801B0228F6D9032070E12E4A09
:100B1000536834490B40616A0B43536053681B02AE
:100B20001B0A216A09060B435360A4E7264A13688F
:100B30002D490B401360FFF74DFE0600224B1B684A
:100B40009B0598D5FFF746FE801B0228F6D90320A7
:100B50004EE11D4A136D01218B431365FFF73AFEE9
:100B60000600194B1B6D9B0706D5FFF733FE801B54
:100B70000228F6D903203BE123685B0700D48EE00E
:100B8000114B9B6BDB001CD40F4A916B80235B05E0
:100B90000B43936301231F00144B1B68DB0529D50E
:100BA000A36880225200934238D0002B4CD1064BD0
:100BB0001A6D0D490A401A651A6D0D490A401A65E9
:100BC00030E000231F00E7E700100240FFFFFEFFB8
:100BD000FFFFFBFFFFE0FFFF341D000808000020BF
:100BE00004000020FF1FFFFFFFFEFFFF007000401A
:100BF000FFFBFFFF874A116880235B000B431360F4
:100C0000FFF7E8FD0600834B1B68DB05C8D4FFF740
:100C1000E1FD801B6428F6D90320E9E07E4A116DCE
:100C20000B431365A368002B28D0FFF7D3FD060004
:100C3000794B1B6D9B0530D4FFF7CCFD801B774BA8
:100C40009842F5D90320D3E0A022D200934209D0E4
:100C5000714B1A6D72490A401A651A6D71490A4042
:100C60001A65DFE76C4B196D013AFF3A0A431A65C2
:100C7000196D802252000A431A65D3E7FFF7AAFDD7
:100C80000600654B1B6D9B0507D5FFF7A3FD801B79
:100C9000624B9842F5D90320AAE0012F21D02368A6
:100CA0009B063CD5A369002B21D05B4B9A680121A0
:100CB0000A439A605A6B0A435A635B4A116A80235B
:100CC0009B010B431362FFF785FD0600524B9B68A7
:100CD0009B0724D4FFF77EFD801B0228F6D9032052
:100CE00086E04D4A936B51490B409363D7E74A4ADC
:100CF000936801218B4393604B4A136A4C490B4024
:100D00001362FFF767FD0600434B9B689B0706D500
:100D1000FFF760FD801B0228F6D9032068E0A36A74
:100D2000002B00D16CE00C2D49D0022B12D03A4A96
:100D3000136840490B401360FFF74CFD0400364B2D
:100D40001B689B0139D5FFF745FD001B0228F6D92A
:100D500003204DE0304A136836490B401360FFF71B
:100D600039FD05002C4B1B689B0106D5FFF732FDB2
:100D7000401B0228F6D903203AE02749CB682E4AC7
:100D80001340E26A206B0243606B02431343CB6063
:100D90000A6880235B0413430B60FFF71BFD04000C
:100DA0001D4B1B689B0106D4FFF714FD001B022896
:100DB000F6D903201CE000201AE0002018E0012BE7
:100DC00020D0154BDA6880235B021340E16A8B4226
:100DD0001AD1F0239B031340216B8B4216D1C02301
:100DE0001B041A40636B9A4212D1002000E00120DC
:100DF00003B0F0BD0120FBE70120F9E70120F7E790
:100E00000020F5E70120F3E70120F1E70120EFE7FB
:100E10000120EDE700700040001002408813000040
:100E2000FFFEFFFFFFFBFFFF00000140FFFFFFEFA2
:100E3000FFDFFFFFFFFFFFFEFFFF02FF70B50500B2
:100E40000C00002800D1D1E06A4B1A68012313403E
:100E50008B4219D32B689B0706D5674AD368F021CC
:100E60008B43A9680B43D3602B68DB077BD56B688A
:100E7000022B20D0032B40D0012B44D05E4A1268B5
:100E800092051DD4012099E05A4A136801218B4331
:100E900023431360FFF79EFC0600564B1A6801239C
:100EA0001340A342D6D0FFF795FC801B534A9042D3
:100EB000F3D9032082E0504A1268920300D497E0ED
:100EC0004D49CA68032082431343CB60FFF782FC7D
:100ED00006006B68022B1CD0032B28D0012B34D0CA
:100EE000454BDB680C221A423DD0FFF773FC801B98
:100EF000424B9842F4D9032060E03F4A12689201C5
:100F0000DED401205AE03C4A12685207D8D40120AE
:100F100054E0394BDA680C231340082B23D0FFF739
:100F200059FC801B354A9042F3D9032046E0324BEE
:100F3000DA680C2313400C2B15D0FFF74BFC801BF9
:100F40002E4B9842F3D9032038E02B4BDA680C2360
:100F50001340042B07D0FFF73DFC801B274B984222
:100F6000F3D903202AE0234B1A6801231340A3423C
:100F700025D82B685B0706D51F4AD36820490B404C
:100F8000E9680B43D3602B681B0707D51A49CB6868
:100F90001C4A13402A69D2001343CB60FFF732FC8E
:100FA000154BDA6812090F231340174AD35CD84057
:100FB000164B1860164B1868FFF7C4FB70BD0D4A3E
:100FC000136801218B4323431360FFF703FC0600E2
:100FD000084B1A6801231340A342CAD0FFF7FAFB5B
:100FE000801B064B9842F3D90320E7E70120E5E791
:100FF0000120E3E7002002400010024088130000B7
:10100000FFF8FFFFFFC7FFFF341D000808000020A6
:1010100004000020014B18687047C04608000020FB
:1010200010B5FFF7F7FF044BDA68120A07231340E5
:10103000024AD35CD84010BD001002402C1D0008AD
:1010400010B5FFF7E7FF044BDA68D20A0723134015
:10105000024AD35CD84010BD001002402C1D00088D
:1010600070B5040003689A0601D41B0573D5824B42
:101070009B6BDB0000D5ACE07F4A916B80235B0566
:101080000B43936301231E007C4B1B68DB0500D4DC
:10109000A2E0794B1A68C0239B031A4061680B4099
:1010A000934200D1ADE0C0239B020A001A409A424D
:1010B00000D1AEE0704B1A6DC0239B0210001840A7
:1010C0001A421FD01940814202D023689B0608D4DF
:1010D000A368C02292021340834213D023681B05E9
:1010E00010D5654B1A6D664911401D6D80200003B7
:1010F00028431865186D634D284018651965D20599
:1011000000D58DE023681B050FD5A368C02292028D
:1011100019001140914200D192E057490B6DA2682D
:10112000C0208002024013430B6523689B060FD545
:101130006368C022920219001140914200D189E0F7
:101140004D490B6D6268C0208002024013430B655D
:10115000012E00D188E02368DB0706D5464AD36C10
:1011600003218B43E1680B43D36423689B0706D5B7
:10117000414AD36C0C218B4321690B43D364236810
:101180005B0706D53C4AD36C3F490B4061690B4372
:10119000D36423681B0706D5374AD36C3B490B4001
:1011A000A1690B43D36423685B0606D5324AD36C2E
:1011B00037490B40216A0B43D36423681B0659D57A
:1011C0002D4AD36C33490B40E1690B43D3640020B3
:1011D00051E000231E0057E7284A116880235B0076
:1011E0000B431360FFF7F6FA0500244B1B68DB0581
:1011F00000D54EE7FFF7EEFA401B6428F5D903202F
:1012000039E0A368C02080030340934200D04AE73E
:1012100050E7194B1B689B0300D44BE701202AE0E1
:10122000FFF7D8FA0500144B1B6D9B0500D569E745
:10123000FFF7D0FA401B184B9842F4D903201AE06C
:101240000D490A6815480240C0208003034013433B
:101250000B6062E708490A6810480240C02080031A
:10126000034013430B606BE7034A936B0C490B403D
:10127000936370E7002070BD0010024000700040D2
:10128000FFFFFCFFFFFFF7FFFFF3FFFFFFCFFFFFB5
:10129000FFFFFFFBFFFFF3FF88130000FFFFCFFFFF
:1012A000FFFFFFEFF0B50400002356E0A6685F00E3
:1012B0000320B8408643C868B8403043A0606068E7
:1012C00090434E683609012232409A4002436260E0
:1012D00053E0DE080836B600375905321A4092004E
:1012E0000F20904087430869904002003A433251F2
:1012F00056E0052600E000268640300038430232E2
:101300009200444E9051444A9768EA433E00AE43EF
:101310004868C00201D53E002E433F488660C7683A
:101320003E0016404868800201D53E002E433A48F0
:10133000C66047683E0016404868800301D53E00FD
:101340002E4335484660066832404868C00301D5E0
:101350002A00324330480260013308680200DA4054
:1013600057D001229A40050015401042F4D04E6833
:10137000032030400138012898D9486803220240F0
:10138000032A08D0E0685E000322B24090438A68D6
:10139000B2400243E260486803220240022A98D029
:1013A00020685E0003221700B740B8434F683A40F8
:1013B000B240024322604868C02292021042CBD061
:1013C0001648426B0126324342639A08901C800003
:1013D000104E87590320184080000F268640B743DF
:1013E000A026F605B44286D00D4EB4420BD00D4E69
:1013F000B4420AD00C4EB44209D00C4EB44200D1D3
:1014000077E7062678E7012676E7022674E70326C3
:1014100072E7F0BD000001400004014000100240EE
:101420000004005000080050000C0050001C005048
:10143000002A01D0816170478162FCE74269130094
:101440000B401B0491430B4383617047034A1168AF
:1014500080235B000B4313607047C0460070004060
:1014600070B5002813DB8308C0339B00144C1A5955
:10147000944603221040C000FC32150085406646A9
:10148000AE4389010A40824032431A5170BD0F2396
:101490000340083B9B0806339B000A4A944663447A
:1014A0005A68944603221040C000FC321400844065
:1014B0006546A54389010A4082402A435A60E5E710
:1014C00000E100E000ED00E0013880235B04984279
:1014D0000FD2094A50600948036A1B021B0AC02147
:1014E00009060B4303620023936007331360002057
:1014F00070470120FCE7C04610E000E000ED00E08E
:1015000010B5FFF7ADFF10BD10B5FFF7DDFF10BD43
:1015100010B5EFF3108C012282F3108801680B687C
:10152000124C23400B608CF31088EFF3108C82F385
:10153000108801688B6893438B608CF31088036E6E
:10154000012B06D080232022C2500023036683662D
:1015500010BDEFF3108183F31088026813683234F2
:10156000FF34A343136081F31088EBE7DFFEFFFF36
:1015700070B5040083680269134342691343C2696A
:10158000134301680A689848024013430B602268BD
:10159000536896490B40E1680B435360A169226888
:1015A000934B9A4201D0236A1943936891480340B0
:1015B0000B4393602368904A93421DD08F4A934215
:1015C0002BD08B4A934239D0102289498B425DD06F
:1015D000E06980231B02984200D196E0022A00D1E4
:1015E000ECE000D8C8E0042A00D1EDE0082A00D0E1
:1015F000CBE080200002CEE0814AD16C03220A4079
:10160000022AE2D005D8002A30D0012A30D1033294
:10161000DBE7032A2ED10532D7E7794AD16C0C22B9
:101620000A40082A28D005D8002ACED0042ACCD0D7
:101630001022CAE70C2A21D1043AC6E7704AD26CBC
:10164000C02109010A40802109018A4218D007D827
:10165000002ABAD08021C9008A4213D10422B4E7FB
:10166000C02109018A420FD10822AEE70122ACE76E
:101670001022AAE71022A8E70222A6E71022A4E778
:101680000222A2E71022A0E710229EE7042A37D008
:101690000BD8002A10D0022A05D1594B1B68DB0653
:1016A00031D458480CE0012084E0082A02D180207F
:1016B000000205E001207DE0FFF7B2FC002879D0B0
:1016C00063685A00D218824200D982E01A0382422B
:1016D00000D280E0020E1600020215005808002118
:1016E000401971411A000023FEF776FD464BC218DF
:1016F000464B9A4200D970E02368D860002059E038
:10170000FFF780F8DAE74248DAE7022A29D005D95C
:10171000042A2CD0082A0ED001204BE0002A06D043
:10172000012A02D1FFF78CFC03E0012042E0FFF721
:1017300077FC00283ED0400061684B08C018FEF7D7
:10174000BFFC0200103A334B9A4248D882B20F23B2
:101750009A434008083B034013432268D3600020AB
:1017600028E0274B1B68DB0604D42648E3E7FFF795
:1017700049F8DEE72648DEE7002A08D0012A02D130
:10178000FFF75EFC05E0012014E0012012E0FFF706
:1017900047FC00280ED061684B081818FEF790FC33
:1017A0000200103A1B4B9A421BD823680004000C1D
:1017B000D86000200023A366E36670BD104B1B6851
:1017C000DB0604D40F48E6E7FFF71CF8E1E7104812
:1017D000E1E70120EEE70120ECE70120EAE7012044
:1017E000E8E70120E6E7C046F369FFEFFFCFFFFF20
:1017F00000480040FFF4FFFF003801400044004073
:10180000001002400024F40000FDFFFFFFFC0F0069
:1018100000093D00EFFF0000436A1B0706D5026880
:1018200053682C490B40416B0B435360436ADB0701
:1018300006D50268536828490B40816A0B43536000
:10184000436A9B0706D50268536824490B40C16A66
:101850000B435360436A5B0706D50268536820490F
:101860000B40016B0B435360436ADB0606D50268ED
:1018700093681C490B40816B0B439360436A9B0642
:1018800006D50268936818490B40C16B0B439360FF
:10189000436A5B060BD50268536814490B40016C20
:1018A0000B435360026C80235B039A420AD0436A65
:1018B0001B0606D5026853680D490B40816C0B432B
:1018C00053607047026853680A490B40416C0B43F0
:1018D0005360ECE7FF7FFFFFFFFFFDFFFFFFFEFF11
:1018E000FFFFFBFFFFEFFFFFFFDFFFFFFFFFEFFF4C
:1018F000FFFFF7FFFFFF9FFFF0B5C64600B50500ED
:101900000C0016009846069F2B68DB6923401B1BC2
:101910005A425341B34231D17B1CF5D0FEF75AFFF6
:101920004346C01AB8422DD8002F2DD02A6813681C
:101930005B07E9D5802CE7D0402CE5D0D3691B07A5
:1019400010D4D3691B05DFD580231B011362280047
:10195000FFF7DEFD84232022EA500C3B0022EA54EC
:1019600003200CE0082414622800FFF7D1FD842333
:10197000EC500C3B0022EA54012000E0002080BC27
:10198000B846F0BD0320FAE70320F8E730B583B08E
:10199000040084230022C250FEF71CFF05002368C8
:1019A0001B681B070FD423681B685B0729D42023FF
:1019B000E3678022A350002323666366083AA3549A
:1019C000002003B030BD8021224B00930300002291
:1019D00089032000FFF790FF0028E4D0EFF3108187
:1019E000012383F3108822681368802083431360E7
:1019F00081F310882023E36758330022E2547D38B6
:101A0000DFE78021134B00932B000022C903200045
:101A1000FFF772FF0028CAD0EFF31080012282F393
:101A2000108821680B680C4D2B400B6080F31088E8
:101A3000EFF3108082F3108821688B6893438B60EA
:101A400080F3108880231F32E250083B0022E254CA
:101A50000320B6E7FFFFFF01DFFEFFFF10B5041E06
:101A60002ED0C36F002B21D02423E3672268136894
:101A700001218B431360636A002B1DD12000FFF707
:101A800077FD012811D0226853680E490B4053603E
:101A9000226893682A218B4393602268136829394E
:101AA0000B4313602000FFF771FF10BD7833002255
:101AB000C254FEF781FDD7E72000FFF7ADFEDDE75A
:101AC0000120F2E7FFB7FFFF704700000D48854691
:101AD000FFF7FAFF0C480D490D4A002302E0D458E5
:101AE000C4500433C4188C42F9D30A4A0A4C002368
:101AF00001E013600432A242FBD300F019F8FEF7B4
:101B0000E1FCFEE700200020000000200C00002087
:101B1000541D00080C000020F0000020FEE7030028
:101B20008218934200D1704719700133F9E7000021
:101B300070B500260C4C0D4D641BA410A64209D1B3
:101B4000002600F0E1F80A4C0A4D641BA410A642DE
:101B500005D170BDB300EB5898470136EEE7B300EE
:101B6000EB5898470136F2E74C1D00084C1D000861
:101B7000501D00084C1D0008F0B545465746DE468E
:101B80004E46E0B504000D0090469A4683B08B4265
:101B90002ED82BD051464046FEF73EFB29000600CA
:101BA0002000FEF739FB331A9946203B31D44246D8
:101BB0009A409B46170043464A4693401E00AF4258
:101BC00037D8AF4200D175E05A46A41BBD41002A68
:101BD00000DA72E00123002000219340009001917F
:101BE000019301234A469340009326E08242D1D9D3
:101BF00000220023009201930C9B002B00D030C3E5
:101C00000098019903B0F0BCBB46B246A946A04675
:101C1000F0BD4A469B46202341469B1AD9400B0003
:101C2000514691404A465F18434693401E00AF42DA
:101C3000C7D9002200230092019349460029DBD036
:101C4000FB079C46720862440E007B080EE0AB4224
:101C500001D1A2420CD8A41A9D41012024196D4142
:101C60000021013E24184D41002E06D0AB42EED992
:101C7000013E24196D41002EF8D1009801995A4671
:101C800000196941002A23DB2B004C46D3402A006F
:101C90005E46E2401C001500002E29DB1F00B74005
:101CA0003B0026004F46BE403200801A994100900A
:101CB0000191A1E7A342BCD886E74A462023002130
:101CC0009B1A0022009101920122DA40019288E7DA
:101CD0004E4620232A009B1B9A402300F3404C468B
:101CE000D3182A005E46E2401C001500002ED5DA0B
:101CF0004F4620232600DB1BDE40B4461600BE40C4
:101D000033006344CDE7C046F8B5C046F8BC08BC14
:101D10009E467047F8B5C046F8BC08BC9E46704762
:101D2000030406080C10182030000000000000001A
:101D3000010203040000000000000000010203048F
:041D40000607080981
:081D440034FEFF7F01000000E6
:041D4C00E1020008A8
:041D5000B5020008D0
:0C1D54000100000004000000000020005E
:0400000508001ACD08
:00000001FF
